8=FIX.4.4|9=154|35=D|34=1089|49=BUYSIDE|56=SELLSIDE|52=20260115-08:30:00.000|11=ORDER-0001|55=AAPL|54=1|60=20260115-08:30:00.000|38=100|40=2|44=185.50|59=0|10=062|
